:020000000000FE
:020001000000FD
:020002000000FC
:020003000000FB
:020004000000FA
:020005000000F9
:020006000000F8
:020007000000F7
:020008000000F6
:020009000000F5
:02000A000000F4
:02000B000000F3
:02000C000000F2
:02000D000000F1
:02000E000000F0
:02000F000000EF
:020010000000EE
:020011000000ED
:020012000000EC
:020013000000EB
:020014000000EA
:020015000000E9
:020016000000E8
:020017000000E7
:020018000000E6
:020019000000E5
:02001A000000E4
:02001B000000E3
:02001C000000E2
:02001D000000E1
:02001E000000E0
:02001F000000DF
:020020000000DE
:020021000000DD
:020022000000DC
:020023000000DB
:020024000000DA
:020025000000D9
:020026000000D8
:020027000000D7
:020028000000D6
:020029000000D5
:02002A000100D3
:02002B000100D2
:02002C000100D1
:02002D000100D0
:02002E000111BE
:02002F000111BD
:020030000111BC
:020031000111BB
:020032000111BA
:020033000101C9
:020034000101C8
:020035000111B7
:020036000111B6
:020037000111B5
:020038000111B4
:020039000111B3
:02003A000100C3
:02003B000101C1
:02003C000101C0
:02003D000100C0
:02003E000100BF
:02003F000100BE
:020040000100BD
:020041000100BC
:020042000000BC
:020043000000BB
:020044000000BA
:020045000000B9
:020046000000B8
:020047000000B7
:020048000000B6
:020049000100B4
:02004A000111A2
:02004B000111A1
:02004C0002228E
:02004D0002228D
:02004E0002119D
:02004F0002119C
:0200500001119C
:020051000100AC
:020052000000AC
:020053000101A9
:020054000101A8
:02005500011197
:02005600011196
:02005700011195
:02005800021193
:02005900021192
:02005A00021191
:02005B00021190
:02005C0002227E
:02005D0003237B
:02005E00043369
:02005F00032379
:0200600002227A
:0200610001118B
:0200620001009B
:0200630001009A
:02006400010099
:02006500010098
:02006600010196
:02006700021184
:02006800022272
:02006900032270
:02006A0003226F
:02006B0003226E
:02006C0002226E
:02006D0002117E
:02006E0001117E
:02006F0001117D
:0200700001117C
:0200710001117B
:0200720001117A
:02007300011179
:02007400011178
:02007500011177
:02007600011176
:02007700011175
:02007800021173
:02007900021271
:02007A00021171
:02007B0002126F
:02007C0002126E
:02007D0002126D
:02007E0002225C
:02007F0002225B
:0200800002225A
:02008100032258
:02008200032257
:02008300032256
:02008400032255
:02008500032254
:02008600032253
:02008700032252
:02008800022252
:02008900022251
:02008A00022250
:02008B0002224F
:02008C0003224D
:02008D0003224C
:02008E0003224B
:02008F0003224A
:02009000032249
:02009100032248
:02009200022248
:02009300021158
:02009400011158
:02009500010068
:02009600010067
:02009700010066
:02009800010065
:02009900010064
:02009A00010063
:02009B00010062
:02009C00011150
:02009D0001114F
:02009E0001114E
:02009F0000005F
:0200A00000005E
:0200A10000005D
:0200A20000005C
:0200A30000005B
:0200A40000005A
:0200A500000059
:0200A600000058
:0200A700000057
:0200A800000056
:0200A900000055
:0200AA00000054
:0200AB00000053
:0200AC00000052
:0200AD00000051
:0200AE00000050
:0200AF0000004F
:0200B00000004E
:0200B10000004D
:0200B20000004C
:0200B30000004B
:0200B40000004A
:0200B500000049
:0200B600000048
:0200B700000047
:0200B800000046
:0200B900000045
:0200BA00000044
:0200BB00000043
:0200BC00000042
:0200BD00000041
:0200BE00000040
:0200BF0000003F
:0200C00000003E
:0200C10000003D
:0200C20000003C
:0200C30000003B
:0200C40000003A
:0200C500000039
:0200C600000038
:0200C700000037
:0200C800000036
:0200C900000035
:0200CA00000034
:0200CB00000033
:0200CC00010031
:0200CD00010030
:0200CE0001111E
:0200CF0001111D
:0200D00001111C
:0200D10001002C
:0200D20001002B
:0200D30001002A
:0200D400010029
:0200D500010127
:0200D600000028
:0200D700010026
:0200D800010025
:0200D900010024
:0200DA00010023
:0200DB00010121
:0200DC00010120
:0200DD00010020
:0200DE0001001F
:0200DF0001001E
:0200E00001001D
:0200E10001001C
:0200E20000001C
:0200E30000001B
:0200E40000001A
:0200E500000019
:0200E600000018
:0200E700000017
:0200E800000016
:0200E900000015
:0200EA00000014
:0200EB00010012
:0200EC000211FF
:0200ED000211FE
:0200EE000211FD
:0200EF000211FC
:0200F0000111FC
:0200F10001000C
:0200F20000000C
:0200F30001000A
:0200F400010009
:0200F500010008
:0200F600010007
:0200F700010006
:0200F800010005
:0200F900010004
:0200FA00000004
:0200FB00000003
:0200FC00000002
:0200FD000111EF
:0200FE000322DB
:0200FF000433C8
:020100000333C7
:020101000211E9
:020102000101F9
:020103000100F9
:020104000100F8
:020105000100F7
:020106000101F5
:020107000212E2
:020108000322D0
:020109000322CF
:02010A000322CE
:02010B000222CE
:02010C000211DE
:02010D000111DE
:02010E000111DD
:02010F000111DC
:020110000111DB
:020111000111DA
:020112000111D9
:020113000111D8
:020114000111D7
:020115000111D6
:020116000111D5
:020117000111D4
:020118000211D2
:020119000212D0
:02011A000211D0
:02011B000212CE
:02011C000212CD
:02011D000212CC
:02011E000222BB
:02011F000222BA
:020120000222B9
:020121000322B7
:020122000322B6
:020123000322B5
:020124000322B4
:020125000322B3
:020126000322B2
:020127000322B1
:020128000222B1
:020129000222B0
:02012A000222AF
:02012B000222AE
:02012C000322AC
:02012D000322AB
:02012E000322AA
:02012F000322A9
:020130000322A8
:020131000322A7
:020132000222A7
:020133000211B7
:020134000111B7
:020135000100C7
:020136000100C6
:020137000100C5
:020138000100C4
:020139000100C3
:02013A000100C2
:02013B000100C1
:02013C000101BF
:02013D000111AE
:02013E000111AD
:02013F000000BE
:020140000000BD
:020141000000BC
:020142000000BB
:020143000000BA
:020144000000B9
:020145000000B8
:020146000000B7
:020147000000B6
:020148000000B5
:020149000000B4
:02014A000000B3
:02014B000000B2
:02014C000000B1
:02014D000000B0
:02014E000000AF
:02014F000000AE
:020150000000AD
:020151000000AC
:020152000000AB
:020153000000AA
:020154000000A9
:020155000000A8
:020156000000A7
:020157000000A6
:020158000000A5
:020159000000A4
:02015A000000A3
:02015B000000A2
:02015C000000A1
:02015D000000A0
:02015E0000009F
:02015F0000009E
:0201600000009D
:0201610000009C
:0201620000009B
:0201630000009A
:02016400000099
:02016500000098
:02016600000097
:02016700000096
:02016800000095
:02016900000094
:02016A00000093
:02016B00000092
:02016C00000091
:02016D00000090
:02016E0000008F
:02016F0000008E
:0201700000008D
:0201710000008C
:0201720000008B
:0201730000008A
:02017400000089
:02017500000088
:02017600000087
:02017700000086
:02017800010084
:02017900010083
:02017A00010082
:02017B00011170
:02017C0001116F
:02017D00000080
:02017E0000007F
:02017F0000007E
:0201800000007D
:0201810000007C
:0201820000007B
:0201830000007A
:02018400000079
:02018500000078
:02018600000077
:02018700000076
:02018800000075
:02018900000074
:02018A00000073
:02018B00000072
:02018C00010070
:02018D0001115E
:02018E0001115D
:02018F0002115B
:0201900001115B
:0201910001006B
:0201920000006B
:0201930000006A
:02019400000069
:02019500000068
:02019600000067
:02019700000066
:02019800000065
:02019900000064
:02019A00000063
:02019B00000062
:02019C00000061
:02019D00000060
:02019E0000005F
:02019F0002223A
:0201A000043425
:0201A100032237
:0201A200011149
:0201A300010059
:0201A400010058
:0201A500010057
:0201A600010155
:0201A700011144
:0201A800021142
:0201A900021141
:0201AA00021140
:0201AB0002123E
:0201AC0002113E
:0201AD0001113E
:0201AE0001113D
:0201AF0001113C
:0201B00001113B
:0201B10001113A
:0201B200011139
:0201B300011138
:0201B400011137
:0201B500011136
:0201B600011135
:0201B700011134
:0201B800021132
:0201B900021230
:0201BA00021130
:0201BB0002122E
:0201BC0002122D
:0201BD0002122C
:0201BE0002221B
:0201BF0002221A
:0201C000022219
:0201C100032217
:0201C200032216
:0201C300032215
:0201C400032214
:0201C500032213
:0201C600032212
:0201C700032211
:0201C800022211
:0201C900022210
:0201CA0002220F
:0201CB0002220E
:0201CC0003220C
:0201CD0003220B
:0201CE0003220A
:0201CF00032209
:0201D000032208
:0201D100022208
:0201D200021118
:0201D300010029
:0201D400010028
:0201D500010027
:0201D600010026
:0201D700010025
:0201D800010024
:0201D900010023
:0201DA00010022
:0201DB00010021
:0201DC00010020
:0201DD0001110E
:0201DE0001110D
:0201DF0000001E
:0201E00000001D
:0201E10000001C
:0201E20000001B
:0201E30000001A
:0201E400000019
:0201E500000018
:0201E600000017
:0201E700000016
:0201E800000015
:0201E900000014
:0201EA00000013
:0201EB00000012
:0201EC00000011
:0201ED00000010
:0201EE0000000F
:0201EF0000000E
:0201F00000000D
:0201F10000000C
:0201F20000000B
:0201F30000000A
:0201F400000009
:0201F500000008
:0201F600000007
:0201F700000006
:0201F800000005
:0201F900000004
:0201FA00000003
:0201FB00000002
:0201FC00000001
:0201FD00000000
:0201FE000000FF
:0201FF000000FE
:020200000000FC
:020201000000FB
:020202000000FA
:020203000000F9
:020204000000F8
:020205000000F7
:020206000000F6
:020207000000F5
:020208000000F4
:020209000000F3
:02020A000000F2
:02020B000000F1
:02020C000000F0
:02020D000000EF
:02020E000000EE
:02020F000000ED
:020210000000EC
:020211000000EB
:020212000000EA
:020213000000E9
:020214000000E8
:020215000000E7
:020216000000E6
:020217000000E5
:020218000100E3
:020219000100E2
:02021A000100E1
:02021B000000E1
:02021C000000E0
:02021D000000DF
:02021E000000DE
:02021F000000DD
:020220000000DC
:020221000000DB
:020222000000DA
:020223000000D9
:020224000000D8
:020225000000D7
:020226000000D6
:020227000000D5
:020228000000D4
:020229000000D3
:02022A000000D2
:02022B000000D1
:02022C000000D0
:02022D000100CE
:02022E000111BC
:02022F000211BA
:020230000111BA
:020231000100CA
:020232000000CA
:020233000000C9
:020234000000C8
:020235000000C7
:020236000000C6
:020237000000C5
:020238000000C4
:020239000000C3
:02023A000000C2
:02023B000000C1
:02023C000000C0
:02023D000000BF
:02023E000000BE
:02023F000100BC
:02024000022298
:02024100033385
:02024200022296
:020243000111A7
:020244000100B7
:020245000100B6
:020246000101B4
:020247000111A3
:020248000111A2
:020249000101B1
:02024A000111A0
:02024B0001119F
:02024C0001119E
:02024D0001119D
:02024E0001119C
:02024F0001119B
:0202500001119A
:02025100011199
:02025200011198
:02025300011197
:02025400011196
:02025500011195
:02025600011194
:02025700011193
:02025800021191
:0202590002128F
:02025A0002118F
:02025B0002128D
:02025C0002128C
:02025D0002128B
:02025E0002227A
:02025F00022279
:02026000022278
:02026100032276
:02026200032275
:02026300032274
:02026400032273
:02026500032272
:02026600032271
:02026700032270
:02026800022270
:0202690002226F
:02026A0002226E
:02026B0002226D
:02026C0002226C
:02026D0002226B
:02026E00032269
:02026F00032268
:02027000022268
:02027100021178
:02027200011178
:02027300010088
:02027400010087
:02027500010086
:02027600010085
:02027700010084
:02027800010083
:02027900010082
:02027A00010081
:02027B00010080
:02027C0001007F
:02027D0001116D
:02027E0001116C
:02027F0000007D
:0202800000007C
:0202810000007B
:0202820000007A
:02028300000079
:02028400000078
:02028500000077
:02028600000076
:02028700000075
:02028800000074
:02028900000073
:02028A00000072
:02028B00000071
:02028C00000070
:02028D0000006F
:02028E0000006E
:02028F0000006D
:0202900000006C
:0202910000006B
:0202920000006A
:02029300000069
:02029400000068
:02029500000067
:02029600000066
:02029700000065
:02029800000064
:02029900000063
:02029A00000062
:02029B00000061
:02029C00000060
:02029D0000005F
:02029E0000005E
:02029F0000005D
:0202A00000005C
:0202A10000005B
:0202A20000005A
:0202A300000059
:0202A400000058
:0202A500000057
:0202A600000056
:0202A700000055
:0202A800000054
:0202A900000053
:0202AA00000052
:0202AB00000051
:0202AC00000050
:0202AD0000004F
:0202AE0000004E
:0202AF0000004D
:0202B00000004C
:0202B10000004B
:0202B20000004A
:0202B300000049
:0202B400000048
:0202B500000047
:0202B600000046
:0202B700000045
:0202B800000044
:0202B900000043
:0202BA00000042
:0202BB00000041
:0202BC00000040
:0202BD0000003F
:0202BE0000003E
:0202BF0000003D
:0202C00000003C
:0202C10000003B
:0202C20000003A
:0202C300000039
:0202C400000038
:0202C500000037
:0202C600000036
:0202C700000035
:0202C800000034
:0202C900000033
:0202CA00000032
:0202CB00000031
:0202CC00000030
:0202CD0000002F
:0202CE0001002D
:0202CF0001111B
:0202D00001111A
:0202D10001002A
:0202D20000002A
:0202D300000029
:0202D400000028
:0202D500000027
:0202D600000026
:0202D700000025
:0202D800000024
:0202D900000023
:0202DA00000022
:0202DB00000021
:0202DC00000020
:0202DD0000001F
:0202DE0000001E
:0202DF0000001D
:0202E00001001B
:0202E1000323F5
:0202E2000333E4
:0202E300011107
:0202E400011106
:0202E500010016
:0202E600010114
:0202E700011103
:0202E800011102
:0202E900010111
:0202EA00010110
:0202EB0001010F
:0202EC0001010E
:0202ED000111FD
:0202EE000111FC
:0202EF000111FB
:0202F0000111FA
:0202F1000111F9
:0202F2000111F8
:0202F3000111F7
:0202F4000111F6
:0202F5000111F5
:0202F6000111F4
:0202F7000111F3
:0202F8000211F1
:0202F9000211F0
:0202FA000211EF
:0202FB000212ED
:0202FC000212EC
:0202FD000212EB
:0202FE000222DA
:0202FF000222D9
:020300000222D7
:020301000322D5
:020302000322D4
:020303000322D3
:020304000322D2
:020305000322D1
:020306000322D0
:020307000322CF
:020308000222CF
:020309000222CE
:02030A000222CD
:02030B000222CC
:02030C000222CB
:02030D000222CA
:02030E000212D9
:02030F000212D8
:020310000211D8
:020311000111D8
:020312000100E8
:020313000100E7
:020314000000E7
:020315000100E5
:020316000100E4
:020317000100E3
:020318000100E2
:020319000100E1
:02031A000100E0
:02031B000100DF
:02031C000100DE
:02031D000111CC
:02031E000211CA
:02031F000000DC
:020320000000DB
:020321000000DA
:020322000000D9
:020323000000D8
:020324000000D7
:020325000000D6
:020326000000D5
:020327000000D4
:020328000000D3
:020329000000D2
:02032A000000D1
:02032B000000D0
:02032C000000CF
:02032D000000CE
:02032E000000CD
:02032F000000CC
:020330000000CB
:020331000000CA
:020332000000C9
:020333000000C8
:020334000000C7
:020335000000C6
:020336000000C5
:020337000000C4
:020338000000C3
:020339000000C2
:02033A000000C1
:02033B000000C0
:02033C000000BF
:02033D000000BE
:02033E000000BD
:02033F000000BC
:020340000000BB
:020341000000BA
:020342000000B9
:020343000000B8
:020344000000B7
:020345000000B6
:020346000000B5
:020347000000B4
:020348000000B3
:020349000000B2
:02034A000000B1
:02034B000000B0
:02034C000000AF
:02034D000000AE
:02034E000000AD
:02034F000000AC
:020350000100AA
:020351000100A9
:020352000100A8
:020353000000A8
:020354000000A7
:020355000000A6
:020356000000A5
:020357000000A4
:020358000000A3
:020359000000A2
:02035A000000A1
:02035B000000A0
:02035C0000009F
:02035D0000009E
:02035E0000009D
:02035F0000009C
:0203600000009B
:0203610000009A
:02036200000099
:02036300000098
:02036400000097
:02036500000096
:02036600000095
:02036700000094
:02036800000093
:02036900000092
:02036A00000091
:02036B00000090
:02036C0000008F
:02036D0000008E
:02036E0001008C
:02036F0001117A
:02037000011179
:02037100010089
:02037200000089
:02037300000088
:02037400000087
:02037500000086
:02037600000085
:02037700000084
:02037800000083
:02037900000082
:02037A00000081
:02037B00000080
:02037C0000007F
:02037D0000007E
:02037E0000007D
:02037F0000007C
:0203800000007B
:02038100022256
:02038200043342
:02038300022254
:02038400011165
:02038500010075
:02038600010173
:02038700011162
:02038800011161
:02038900010170
:02038A0001016F
:02038B0001016E
:02038C0001016D
:02038D0001115C
:02038E0001115B
:02038F0001115A
:02039000011159
:02039100011158
:02039200011157
:02039300011156
:02039400011155
:02039500011154
:02039600011153
:02039700011152
:02039800011151
:02039900011150
:02039A0002114E
:02039B0002114D
:02039C0002114C
:02039D0002114B
:02039E00021249
:02039F00021248
:0203A000021247
:0203A100021246
:0203A200021245
:0203A300021244
:0203A400021243
:0203A500021242
:0203A600021241
:0203A700021240
:0203A80002123F
:0203A90002123E
:0203AA0002123D
:0203AB0002123C
:0203AC0002123B
:0203AD0002113B
:0203AE0002113A
:0203AF0001113A
:0203B000011139
:0203B100010049
:0203B200000049
:0203B300000048
:0203B400000047
:0203B500010045
:0203B600010044
:0203B700010043
:0203B800010042
:0203B900010041
:0203BA00010040
:0203BB0001003F
:0203BC0001003E
:0203BD0001112C
:0203BE0002112A
:0203BF0000003C
:0203C00000003B
:0203C10000003A
:0203C200000039
:0203C300000038
:0203C400000037
:0203C500000036
:0203C600000035
:0203C700000034
:0203C800000033
:0203C900000032
:0203CA00000031
:0203CB00000030
:0203CC0000002F
:0203CD0000002E
:0203CE0000002D
:0203CF0000002C
:0203D00000002B
:0203D10000002A
:0203D200000029
:0203D300000028
:0203D400000027
:0203D500000026
:0203D600000025
:0203D700000024
:0203D800000023
:0203D900000022
:0203DA00000021
:0203DB00000020
:0203DC0000001F
:0203DD0000001E
:0203DE0000001D
:0203DF0000001C
:0203E00000001B
:0203E10000001A
:0203E200000019
:0203E300000018
:0203E400000017
:0203E500000016
:0203E600000015
:0203E700000014
:0203E800000013
:0203E900000012
:0203EA00000011
:0203EB00000010
:0203EC0000000F
:0203ED0000000E
:0203EE0000000D
:0203EF0000000C
:0203F00000000B
:0203F10000000A
:0203F200000009
:0203F300000008
:0203F400000007
:0203F500000006
:0203F600000005
:0203F700000004
:0203F800000003
:0203F900000002
:0203FA00000001
:0203FB00000000
:0203FC000000FF
:0203FD000000FE
:0203FE000000FD
:0203FF000000FC
:020400000000FA
:020401000000F9
:020402000000F8
:020403000000F7
:020404000000F6
:020405000000F5
:020406000000F4
:020407000000F3
:020408000000F2
:020409000000F1
:02040A000000F0
:02040B000000EF
:02040C000000EE
:02040D000000ED
:02040E000100EB
:02040F000111D9
:020410000111D8
:020411000100E8
:020412000000E8
:020413000000E7
:020414000000E6
:020415000000E5
:020416000000E4
:020417000000E3
:020418000000E2
:020419000000E1
:02041A000000E0
:02041B000000DF
:02041C000000DE
:02041D000000DD
:02041E000000DC
:02041F000000DB
:020420000000DA
:020421000211C6
:020422000433A1
:020423000222B3
:020424000111C4
:020425000101D3
:020426000101D2
:020427000111C1
:020428000111C0
:020429000101CF
:02042A000111BE
:02042B000111BD
:02042C000111BC
:02042D000111BB
:02042E000111BA
:02042F000111B9
:020430000111B8
:020431000111B7
:020432000111B6
:020433000111B5
:020434000111B4
:020435000111B3
:020436000111B2
:020437000111B1
:020438000111B0
:020439000111AF
:02043A000111AE
:02043B000111AD
:02043C000111AC
:02043D000111AB
:02043E000211A9
:02043F000211A8
:020440000211A7
:020441000211A6
:020442000211A5
:020443000211A4
:020444000211A3
:020445000211A2
:020446000211A1
:020447000211A0
:0204480002119F
:0204490002119E
:02044A0002129C
:02044B0002129B
:02044C0002119B
:02044D0002119A
:02044E0001119A
:02044F00011199
:020450000101A8
:020451000100A8
:020452000000A8
:020453000000A7
:020454000000A6
:020455000100A4
:020456000100A3
:020457000100A2
:020458000100A1
:020459000100A0
:02045A0001009F
:02045B0001009E
:02045C0001009D
:02045D0001118B
:02045E0001118A
:02045F0000009B
:0204600000009A
:02046100000099
:02046200000098
:02046300000097
:02046400000096
:02046500000095
:02046600000094
:02046700000093
:02046800000092
:02046900000091
:02046A00000090
:02046B0000008F
:02046C0000008E
:02046D0000008D
:02046E0000008C
:02046F0000008B
:0204700000008A
:02047100000089
:02047200000088
:02047300000087
:02047400000086
:02047500000085
:02047600000084
:02047700000083
:02047800000082
:02047900000081
:02047A00000080
:02047B0000007F
:02047C0000007E
:02047D0000007D
:02047E0000007C
:02047F0000007B
:0204800000007A
:02048100000079
:02048200000078
:02048300000077
:02048400000076
:02048500000075
:02048600000074
:02048700000073
:02048800000072
:02048900000071
:02048A00000070
:02048B0000006F
:02048C0000006E
:02048D0000006D
:02048E0000006C
:02048F0000006B
:0204900000006A
:02049100000069
:02049200000068
:02049300000067
:02049400000066
:02049500000065
:02049600000064
:02049700000063
:02049800000062
:02049900000061
:02049A00000060
:02049B0000005F
:02049C0000005E
:02049D0000005D
:02049E0000005C
:02049F0000005B
:0204A00000005A
:0204A100000059
:0204A200000058
:0204A300000057
:0204A400000056
:0204A500000055
:0204A600000054
:0204A700000053
:0204A800000052
:0204A900000051
:0204AA00000050
:0204AB0000004F
:0204AC0000004E
:0204AD0000004D
:0204AE0001004B
:0204AF00011139
:0204B000011138
:0204B100010048
:0204B200000048
:0204B300000047
:0204B400000046
:0204B500000045
:0204B600000044
:0204B700000043
:0204B800000042
:0204B900000041
:0204BA00000040
:0204BB0000003F
:0204BC0000003E
:0204BD0000003D
:0204BE0000003C
:0204BF0000003B
:0204C00000003A
:0204C100021126
:0204C200033302
:0204C300022213
:0204C400011124
:0204C500011123
:0204C600011122
:0204C700011121
:0204C800011120
:0204C90001111F
:0204CA0001012E
:0204CB0001012D
:0204CC0001111C
:0204CD0001111B
:0204CE0001111A
:0204CF00011119
:0204D000011118
:0204D100011117
:0204D200011116
:0204D300011115
:0204D400011114
:0204D500011113
:0204D600011112
:0204D700011111
:0204D800010120
:0204D90001110F
:0204DA0001011E
:0204DB0001011D
:0204DC0001110C
:0204DD0001110B
:0204DE0001110A
:0204DF00011109
:0204E000011108
:0204E100011107
:0204E200011106
:0204E300011105
:0204E400011104
:0204E500021102
:0204E600021101
:0204E700021100
:0204E8000211FF
:0204E9000211FE
:0204EA000211FD
:0204EB000211FC
:0204EC000211FB
:0204ED000111FB
:0204EE0001000B
:0204EF0001000A
:0204F000010009
:0204F100000009
:0204F200000008
:0204F300000007
:0204F400000006
:0204F500000005
:0204F600000004
:0204F700000003
:0204F800000002
:0204F900000001
:0204FA00000000
:0204FB000000FF
:0204FC000100FD
:0204FD000101FB
:0204FE000111EA
:0204FF000000FB
:020500000000F9
:020501000000F8
:020502000000F7
:020503000000F6
:020504000000F5
:020505000000F4
:020506000000F3
:020507000000F2
:020508000000F1
:020509000000F0
:02050A000000EF
:02050B000000EE
:02050C000000ED
:02050D000000EC
:02050E000000EB
:02050F000000EA
:020510000000E9
:020511000000E8
:020512000000E7
:020513000000E6
:020514000000E5
:020515000000E4
:020516000000E3
:020517000000E2
:020518000000E1
:020519000000E0
:02051A000000DF
:02051B000000DE
:02051C000000DD
:02051D000000DC
:02051E000000DB
:02051F000000DA
:020520000000D9
:020521000000D8
:020522000000D7
:020523000000D6
:020524000000D5
:020525000000D4
:020526000000D3
:020527000000D2
:020528000000D1
:020529000000D0
:02052A000000CF
:02052B000000CE
:02052C000000CD
:02052D000000CC
:02052E000000CB
:02052F000000CA
:020530000000C9
:020531000000C8
:020532000000C7
:020533000000C6
:020534000000C5
:020535000000C4
:020536000000C3
:020537000000C2
:020538000000C1
:020539000000C0
:02053A000000BF
:02053B000000BE
:02053C000000BD
:02053D000000BC
:02053E000000BB
:02053F000000BA
:020540000000B9
:020541000000B8
:020542000000B7
:020543000000B6
:020544000000B5
:020545000000B4
:020546000000B3
:020547000000B2
:020548000000B1
:020549000000B0
:02054A000000AF
:02054B000000AE
:02054C000000AD
:02054D000000AC
:02054E000100AA
:02054F00011198
:02055000011197
:020551000100A7
:020552000000A7
:020553000000A6
:020554000000A5
:020555000000A4
:020556000000A3
:020557000000A2
:020558000000A1
:020559000000A0
:02055A0000009F
:02055B0000009E
:02055C0000009D
:02055D0000009C
:02055E0000009B
:02055F0000009A
:02056000010098
:02056100021185
:02056200022273
:02056300021282
:02056400011183
:02056500011182
:02056600011181
:02056700011180
:0205680001117F
:0205690001117E
:02056A0001117D
:02056B0001117C
:02056C0001018B
:02056D0001018A
:02056E00010189
:02056F00010188
:02057000010187
:02057100010186
:02057200010185
:02057300010184
:02057400010183
:02057500011172
:02057600011171
:02057700011170
:0205780001116F
:0205790001116E
:02057A0001116D
:02057B0001116C
:02057C0001116B
:02057D0001116A
:02057E00011169
:02057F00011168
:02058000011167
:02058100011166
:02058200011165
:02058300011164
:02058400011163
:02058500021161
:02058600021160
:0205870002115F
:0205880002115E
:0205890002115D
:02058A0002115C
:02058B0002115B
:02058C0001115B
:02058D0001006B
:02058E0000006B
:02058F0000006A
:02059000000069
:02059100000068
:02059200000067
:02059300000066
:02059400000065
:02059500000064
:02059600000063
:02059700000062
:02059800000061
:02059900000060
:02059A0000005F
:02059B0000005E
:02059C0001005C
:02059D0001015A
:02059E00011149
:02059F0000005A
:0205A000000059
:0205A100000058
:0205A200000057
:0205A300000056
:0205A400000055
:0205A500000054
:0205A600000053
:0205A700000052
:0205A800000051
:0205A900000050
:0205AA0000004F
:0205AB0000004E
:0205AC0000004D
:0205AD0000004C
:0205AE0000004B
:0205AF0000004A
:0205B000000049
:0205B100000048
:0205B200000047
:0205B300000046
:0205B400000045
:0205B500000044
:0205B600000043
:0205B700000042
:0205B800000041
:0205B900000040
:0205BA0000003F
:0205BB0000003E
:0205BC0000003D
:0205BD0000003C
:0205BE0000003B
:0205BF0000003A
:0205C000000039
:0205C100000038
:0205C200000037
:0205C300000036
:0205C400000035
:0205C500000034
:0205C600000033
:0205C700000032
:0205C800000031
:0205C900000030
:0205CA0000002F
:0205CB0000002E
:0205CC0000002D
:0205CD0000002C
:0205CE0000002B
:0205CF0000002A
:0205D000000029
:0205D100000028
:0205D200000027
:0205D300000026
:0205D400000025
:0205D500000024
:0205D600000023
:0205D700000022
:0205D800000021
:0205D900000020
:0205DA0000001F
:0205DB0000001E
:0205DC0000001D
:0205DD0000001C
:0205DE0000001B
:0205DF0000001A
:0205E000000019
:0205E100000018
:0205E200000017
:0205E300000016
:0205E400000015
:0205E500000014
:0205E600000013
:0205E700000012
:0205E800000011
:0205E900000010
:0205EA0000000F
:0205EB0000000E
:0205EC0000000D
:0205ED0000000C
:0205EE00010109
:0205EF000111F8
:0205F0000111F7
:0205F100010007
:0205F200000007
:0205F300000006
:0205F400000005
:0205F500000004
:0205F600000003
:0205F700000002
:0205F800000001
:0205F900000000
:0205FA000000FF
:0205FB000000FE
:0205FC000000FD
:0205FD000000FC
:0205FE000000FB
:0205FF000000FA
:020600000101F6
:020601000222D3
:020602000211E3
:020603000211E2
:020604000111E2
:020605000111E1
:020606000101F0
:020607000100F0
:020608000101EE
:020609000101ED
:02060A000101EC
:02060B000101EB
:02060C000100EB
:02060D000100EA
:02060E000100E9
:02060F000100E8
:020610000100E7
:020611000100E6
:020612000100E5
:020613000100E4
:020614000100E3
:020615000101E1
:020616000111D0
:020617000111CF
:020618000111CE
:020619000101DD
:02061A000101DC
:02061B000101DB
:02061C000101DA
:02061D000101D9
:02061E000111C8
:02061F000211C6
:020620000211C5
:020621000211C4
:020622000211C3
:020623000211C2
:020624000211C1
:020625000211C0
:020626000211BF
:020627000211BE
:020628000211BD
:020629000111BD
:02062A000101CC
:02062B000100CC
:02062C000100CB
:02062D000000CB
:02062E000000CA
:02062F000000C9
:020630000000C8
:020631000000C7
:020632000000C6
:020633000000C5
:020634000000C4
:020635000000C3
:020636000000C2
:020637000000C1
:020638000000C0
:020639000000BF
:02063A000000BE
:02063B000000BD
:02063C000100BB
:02063D000111A9
:02063E000111A8
:02063F000000B9
:020640000000B8
:020641000000B7
:020642000000B6
:020643000000B5
:020644000000B4
:020645000000B3
:020646000000B2
:020647000000B1
:020648000000B0
:020649000000AF
:02064A000000AE
:02064B000000AD
:02064C000000AC
:02064D000000AB
:02064E000000AA
:02064F000000A9
:020650000000A8
:020651000000A7
:020652000000A6
:020653000000A5
:020654000000A4
:020655000000A3
:020656000000A2
:020657000000A1
:020658000000A0
:0206590000009F
:02065A0000009E
:02065B0000009D
:02065C0000009C
:02065D0000009B
:02065E0000009A
:02065F00000099
:02066000000098
:02066100000097
:02066200000096
:02066300000095
:02066400000094
:02066500000093
:02066600000092
:02066700000091
:02066800000090
:0206690000008F
:02066A0000008E
:02066B0000008D
:02066C0000008C
:02066D0000008B
:02066E0000008A
:02066F00000089
:02067000000088
:02067100000087
:02067200000086
:02067300000085
:02067400000084
:02067500000083
:02067600000082
:02067700000081
:02067800000080
:0206790000007F
:02067A0000007E
:02067B0000007D
:02067C0000007C
:02067D0000007B
:02067E0000007A
:02067F00000079
:02068000000078
:02068100000077
:02068200000076
:02068300000075
:02068400000074
:02068500000073
:02068600000072
:02068700000071
:02068800000070
:0206890000006F
:02068A0000006E
:02068B0000006D
:02068C0000006C
:02068D0000006B
:02068E0000006A
:02068F00010068
:02069000010067
:02069100010066
:02069200010065
:02069300000065
:02069400000064
:02069500000063
:02069600000062
:02069700000061
:02069800000060
:0206990000005F
:02069A0000005E
:02069B0000005D
:02069C0000005C
:02069D0000005B
:02069E0000005A
:02069F00010058
:0206A000011146
:0206A100021144
:0206A200021143
:0206A300011143
:0206A400011142
:0206A500011141
:0206A600010051
:0206A70001014F
:0206A80001014E
:0206A90001004E
:0206AA0001004D
:0206AB0001004C
:0206AC0001004B
:0206AD0001004A
:0206AE00010049
:0206AF00010048
:0206B000010047
:0206B100010046
:0206B200010045
:0206B300010044
:0206B400010043
:0206B500010042
:0206B600010041
:0206B700010040
:0206B80001013E
:0206B90001112D
:0206BA0001112C
:0206BB0001112B
:0206BC0001112A
:0206BD00011129
:0206BE00011128
:0206BF00021126
:0206C000021125
:0206C100021124
:0206C200021123
:0206C300021122
:0206C400021121
:0206C500021120
:0206C60002111F
:0206C70002111E
:0206C80001002F
:0206C90001002E
:0206CA0001002D
:0206CB0000002D
:0206CC0000002C
:0206CD0000002B
:0206CE0000002A
:0206CF00000029
:0206D000000028
:0206D100000027
:0206D200000026
:0206D300000025
:0206D400000024
:0206D500000023
:0206D600000022
:0206D700000021
:0206D800000020
:0206D90000001F
:0206DA0000001E
:0206DB0000001D
:0206DC0001001B
:0206DD00011109
:0206DE00011108
:0206DF00000019
:0206E000000018
:0206E100000017
:0206E200000016
:0206E300000015
:0206E400000014
:0206E500000013
:0206E600000012
:0206E700000011
:0206E800000010
:0206E90000000F
:0206EA0000000E
:0206EB0000000D
:0206EC0000000C
:0206ED0000000B
:0206EE0000000A
:0206EF00000009
:0206F000000008
:0206F100000007
:0206F200000006
:0206F300000005
:0206F400000004
:0206F500000003
:0206F600000002
:0206F700000001
:0206F800000000
:0206F9000000FF
:0206FA000000FE
:0206FB000000FD
:0206FC000000FC
:0206FD000000FB
:0206FE000000FA
:0206FF000000F9
:020700000000F7
:020701000000F6
:020702000000F5
:020703000000F4
:020704000000F3
:020705000000F2
:020706000000F1
:020707000000F0
:020708000000EF
:020709000000EE
:02070A000000ED
:02070B000000EC
:02070C000000EB
:02070D000000EA
:02070E000000E9
:02070F000000E8
:020710000000E7
:020711000000E6
:020712000000E5
:020713000000E4
:020714000000E3
:020715000000E2
:020716000000E1
:020717000000E0
:020718000000DF
:020719000000DE
:02071A000000DD
:02071B000000DC
:02071C000000DB
:02071D000000DA
:02071E000000D9
:02071F000000D8
:020720000000D7
:020721000000D6
:020722000000D5
:020723000100D3
:020724000100D2
:020725000100D1
:020726000000D1
:020727000000D0
:020728000000CF
:020729000000CE
:02072A000000CD
:02072B000000CC
:02072C000100CA
:02072D000000CA
:02072E000000C9
:02072F000000C8
:020730000000C7
:020731000000C6
:020732000000C5
:020733000000C4
:020734000000C3
:020735000000C2
:020736000000C1
:020737000000C0
:020738000000BF
:020739000000BE
:02073A000000BD
:02073B000000BC
:02073C000000BB
:02073D000100B9
:02073E000101B7
:02073F000111A6
:020740000111A5
:020741000100B5
:020742000100B4
:020743000100B3
:020744000000B3
:020745000000B2
:020746000100B0
:020747000000B0
:020748000000AF
:020749000000AE
:02074A000000AD
:02074B000000AC
:02074C000000AB
:02074D000000AA
:02074E000000A9
:02074F000000A8
:020750000000A7
:020751000000A6
:020752000000A5
:020753000000A4
:020754000000A3
:020755000100A1
:020756000100A0
:0207570001009F
:0207580001009E
:0207590001019C
:02075A0001009C
:02075B0001009B
:02075C00010199
:02075D00011188
:02075E00011187
:02075F00021185
:02076000021184
:02076100021183
:02076200021182
:02076300021181
:02076400021180
:0207650002117F
:0207660002117E
:0207670001008F
:0207680000008F
:0207690000008E
:02076A0000008D
:02076B0000008C
:02076C0000008B
:02076D0000008A
:02076E00000089
:02076F00000088
:02077000000087
:02077100000086
:02077200000085
:02077300000084
:02077400000083
:02077500000082
:02077600000081
:02077700000080
:0207780000007F
:0207790000007E
:02077A0000007D
:02077B0000007C
:02077C0001007A
:02077D00011168
:02077E00011167
:02077F00000078
:02078000000077
:02078100000076
:02078200000075
:02078300000074
:02078400000073
:02078500000072
:02078600000071
:02078700000070
:0207880000006F
:0207890000006E
:02078A0000006D
:02078B0000006C
:02078C0000006B
:02078D0000006A
:02078E00000069
:02078F00000068
:02079000000067
:02079100000066
:02079200000065
:02079300000064
:02079400000063
:02079500000062
:02079600000061
:02079700000060
:0207980000005F
:0207990000005E
:02079A0000005D
:02079B0000005C
:02079C0000005B
:02079D0000005A
:02079E00000059
:02079F00000058
:0207A000000057
:0207A100000056
:0207A200000055
:0207A300000054
:0207A400000053
:0207A500000052
:0207A600000051
:0207A700000050
:0207A80000004F
:0207A90000004E
:0207AA0000004D
:0207AB0000004C
:0207AC0000004B
:0207AD0000004A
:0207AE00000049
:0207AF00000048
:0207B000000047
:0207B100000046
:0207B200000045
:0207B300000044
:0207B400000043
:0207B500000042
:0207B600000041
:0207B700000040
:0207B80000003F
:0207B90000003E
:0207BA0000003D
:0207BB0000003C
:0207BC0000003B
:0207BD0000003A
:0207BE00000039
:0207BF00000038
:0207C000000037
:0207C100000036
:0207C200000035
:0207C300000034
:0207C400000033
:0207C500000032
:0207C600000031
:0207C700000030
:0207C80000002F
:0207C90000002E
:0207CA0000002D
:0207CB0000002C
:0207CC0000002B
:0207CD0000002A
:0207CE00000029
:0207CF00000028
:0207D000000027
:0207D100000026
:0207D200000025
:0207D300000024
:0207D400000023
:0207D500000022
:0207D600000021
:0207D700000020
:0207D80000001F
:0207D90001001D
:0207DA0000001D
:0207DB0001011A
:0207DC00011109
:0207DD00011108
:0207DE00011107
:0207DF00010017
:0207E000010016
:0207E100000016
:0207E200000015
:0207E300000014
:0207E400000013
:0207E500000012
:0207E600000011
:0207E700000010
:0207E80000000F
:0207E90000000E
:0207EA0000000D
:0207EB0000000C
:0207EC0000000B
:0207ED0000000A
:0207EE00000009
:0207EF00000008
:0207F000000007
:0207F100000006
:0207F200000005
:0207F300000004
:0207F400000003
:0207F500000002
:0207F600000001
:0207F700000000
:0207F8000000FF
:0207F9000000FE
:0207FA000000FD
:0207FB000000FC
:0207FC000100FA
:0207FD000100F9
:0207FE000100F8
:0207FF000100F7
:020800000100F5
:020801000100F4
:020802000100F3
:020803000100F2
:020804000100F1
:020805000100F0
:020806000000F0
:020807000000EF
:020808000000EE
:020809000000ED
:02080A000000EC
:02080B000000EB
:02080C000000EA
:02080D000000E9
:02080E000000E8
:02080F000000E7
:020810000000E6
:020811000000E5
:020812000000E4
:020813000000E3
:020814000000E2
:020815000000E1
:020816000000E0
:020817000000DF
:020818000000DE
:020819000000DD
:02081A000000DC
:02081B000000DB
:02081C000100D9
:02081D000111C7
:02081E000111C6
:02081F000000D7
:020820000000D6
:020821000000D5
:020822000000D4
:020823000000D3
:020824000000D2
:020825000000D1
:020826000000D0
:020827000000CF
:020828000000CE
:020829000000CD
:02082A000000CC
:02082B000000CB
:02082C000000CA
:02082D000000C9
:02082E000000C8
:02082F000000C7
:020830000000C6
:020831000000C5
:020832000000C4
:020833000000C3
:020834000000C2
:020835000000C1
:020836000000C0
:020837000000BF
:020838000000BE
:020839000000BD
:02083A000000BC
:02083B000000BB
:02083C000000BA
:02083D000000B9
:02083E000000B8
:02083F000000B7
:020840000000B6
:020841000000B5
:020842000000B4
:020843000000B3
:020844000000B2
:020845000000B1
:020846000000B0
:020847000000AF
:020848000000AE
:020849000000AD
:02084A000000AC
:02084B000000AB
:02084C000000AA
:02084D000000A9
:02084E000000A8
:02084F000000A7
:020850000000A6
:020851000000A5
:020852000000A4
:020853000000A3
:020854000000A2
:020855000000A1
:020856000000A0
:0208570000009F
:0208580000009E
:0208590000009D
:02085A0000009C
:02085B0000009B
:02085C0000009A
:02085D00000099
:02085E00000098
:02085F00000097
:02086000000096
:02086100000095
:02086200000094
:02086300000093
:02086400000092
:02086500000091
:02086600000090
:0208670000008F
:0208680000008E
:0208690000008D
:02086A0000008C
:02086B0000008B
:02086C0000008A
:02086D00000089
:02086E00000088
:02086F00000087
:02087000000086
:02087100000085
:02087200000084
:02087300000083
:02087400000082
:02087500000081
:02087600000080
:0208770000007F
:0208780001007D
:0208790000007D
:02087A0000007C
:02087B0000007B
:02087C0000007A
:02087D00000079
:02087E00000078
:02087F00000077
:02088000000076
:02088100000075
:02088200000074
:02088300000073
:02088400000072
:02088500000071
:02088600000070
:0208870000006F
:0208880000006E
:0208890000006D
:02088A0000006C
:02088B0000006B
:02088C0000006A
:02088D00000069
:02088E00000068
:02088F00000067
:02089000000066
:02089100000065
:02089200000064
:02089300000063
:02089400000062
:02089500000061
:02089600000060
:0208970000005F
:0208980000005E
:0208990000005D
:02089A0000005C
:02089B0000005B
:02089C0000005A
:02089D00000059
:02089E00000058
:02089F00000057
:0208A000000056
:0208A100000055
:0208A200000054
:0208A300000053
:0208A400000052
:0208A500000051
:0208A600000050
:0208A70000004F
:0208A80000004E
:0208A90000004D
:0208AA0000004C
:0208AB0000004B
:0208AC0000004A
:0208AD00000049
:0208AE00000048
:0208AF00000047
:0208B000000046
:0208B100000045
:0208B200000044
:0208B300000043
:0208B400000042
:0208B500000041
:0208B600000040
:0208B70000003F
:0208B80000003E
:0208B90000003D
:0208BA0000003C
:0208BB0001003A
:0208BC00010039
:0208BD00011127
:0208BE00011126
:0208BF00000037
:0208C000000036
:0208C100000035
:0208C200000034
:0208C300000033
:0208C400000032
:0208C500000031
:0208C600000030
:0208C70000002F
:0208C80000002E
:0208C90000002D
:0208CA0000002C
:0208CB0000002B
:0208CC0000002A
:0208CD00000029
:0208CE00000028
:0208CF00000027
:0208D000000026
:0208D100000025
:0208D200000024
:0208D300000023
:0208D400000022
:0208D500000021
:0208D600000020
:0208D70000001F
:0208D80000001E
:0208D90000001D
:0208DA0000001C
:0208DB0000001B
:0208DC0000001A
:0208DD00000019
:0208DE00000018
:0208DF00000017
:0208E000000016
:0208E100000015
:0208E200000014
:0208E300000013
:0208E400000012
:0208E500000011
:0208E600000010
:0208E70000000F
:0208E80000000E
:0208E90000000D
:0208EA0000000C
:0208EB0000000B
:0208EC0000000A
:0208ED00000009
:0208EE00000008
:0208EF00000007
:0208F000000006
:0208F100000005
:0208F200000004
:0208F300000003
:0208F400000002
:0208F500000001
:0208F600000000
:0208F7000000FF
:0208F8000000FE
:0208F9000000FD
:0208FA000000FC
:0208FB000000FB
:0208FC000000FA
:0208FD000000F9
:0208FE000000F8
:0208FF000000F7
:020900000000F5
:020901000000F4
:020902000000F3
:020903000000F2
:020904000000F1
:020905000000F0
:020906000000EF
:020907000000EE
:020908000000ED
:020909000000EC
:02090A000000EB
:02090B000000EA
:02090C000000E9
:02090D000000E8
:02090E000000E7
:02090F000000E6
:020910000000E5
:020911000000E4
:020912000000E3
:020913000000E2
:020914000000E1
:020915000000E0
:020916000000DF
:020917000000DE
:020918000000DD
:020919000000DC
:02091A000000DB
:02091B000000DA
:02091C000000D9
:02091D000000D8
:02091E000000D7
:02091F000000D6
:020920000000D5
:020921000000D4
:020922000000D3
:020923000000D2
:020924000000D1
:020925000000D0
:020926000000CF
:020927000000CE
:020928000000CD
:020929000000CC
:02092A000000CB
:02092B000000CA
:02092C000000C9
:02092D000000C8
:02092E000000C7
:02092F000000C6
:020930000000C5
:020931000000C4
:020932000000C3
:020933000000C2
:020934000000C1
:020935000000C0
:020936000000BF
:020937000000BE
:020938000000BD
:020939000000BC
:02093A000000BB
:02093B000000BA
:02093C000000B9
:02093D000000B8
:02093E000000B7
:02093F000000B6
:020940000000B5
:020941000000B4
:020942000000B3
:020943000000B2
:020944000000B1
:020945000000B0
:020946000000AF
:020947000000AE
:020948000000AD
:020949000000AC
:02094A000000AB
:02094B000000AA
:02094C000000A9
:02094D000000A8
:02094E000000A7
:02094F000000A6
:020950000000A5
:020951000000A4
:020952000000A3
:020953000000A2
:020954000000A1
:020955000000A0
:0209560000009F
:0209570000009E
:0209580000009D
:0209590000009C
:02095A0000009B
:02095B0000009A
:02095C00000099
:02095D00010097
:02095E00011185
:02095F00000096
:02096000000095
:02096100000094
:02096200000093
:02096300000092
:02096400000091
:02096500000090
:0209660000008F
:0209670000008E
:0209680000008D
:0209690000008C
:02096A0000008B
:02096B0000008A
:02096C00000089
:02096D00000088
:02096E00000087
:02096F00000086
:02097000000085
:02097100000084
:02097200000083
:02097300000082
:02097400000081
:02097500000080
:0209760000007F
:0209770000007E
:0209780000007D
:0209790000007C
:02097A0000007B
:02097B0000007A
:02097C00000079
:02097D00000078
:02097E00000077
:02097F00000076
:02098000000075
:02098100000074
:02098200000073
:02098300000072
:02098400000071
:02098500000070
:0209860000006F
:0209870000006E
:0209880000006D
:0209890000006C
:02098A0000006B
:02098B0000006A
:02098C00000069
:02098D00000068
:02098E00000067
:02098F00000066
:02099000000065
:02099100000064
:02099200000063
:02099300000062
:02099400000061
:02099500000060
:0209960000005F
:0209970000005E
:0209980000005D
:0209990000005C
:02099A0000005B
:02099B0000005A
:02099C00000059
:02099D00000058
:02099E00000057
:02099F00000056
:0209A000000055
:0209A100000054
:0209A200000053
:0209A300000052
:0209A400000051
:0209A500000050
:0209A60000004F
:0209A70000004E
:0209A80000004D
:0209A90000004C
:0209AA0000004B
:0209AB0000004A
:0209AC00000049
:0209AD00000048
:0209AE00000047
:0209AF00000046
:0209B000000045
:0209B100000044
:0209B200000043
:0209B300000042
:0209B400000041
:0209B500000040
:0209B60000003F
:0209B70000003E
:0209B80000003D
:0209B90000003C
:0209BA0000003B
:0209BB0000003A
:0209BC00000039
:0209BD00000038
:0209BE00000037
:0209BF00000036
:0209C000000035
:0209C100000034
:0209C200000033
:0209C300000032
:0209C400000031
:0209C500000030
:0209C60000002F
:0209C70000002E
:0209C80000002D
:0209C90000002C
:0209CA0000002B
:0209CB0000002A
:0209CC00000029
:0209CD00000028
:0209CE00000027
:0209CF00000026
:0209D000000025
:0209D100000024
:0209D200000023
:0209D300000022
:0209D400000021
:0209D500000020
:0209D60000001F
:0209D70000001E
:0209D80000001D
:0209D90000001C
:0209DA0000001B
:0209DB0000001A
:0209DC00000019
:0209DD00000018
:0209DE00000017
:0209DF00000016
:0209E000000015
:0209E100000014
:0209E200000013
:0209E300000012
:0209E400000011
:0209E500000010
:0209E60000000F
:0209E70000000E
:0209E80000000D
:0209E90000000C
:0209EA0000000B
:0209EB0000000A
:0209EC00000009
:0209ED00000008
:0209EE00000007
:0209EF00000006
:0209F000000005
:0209F100000004
:0209F200000003
:0209F300000002
:0209F400000001
:0209F500000000
:0209F6000000FF
:0209F7000000FE
:0209F8000000FD
:0209F9000000FC
:0209FA000000FB
:0209FB000000FA
:0209FC000000F9
:0209FD000100F7
:0209FE000111E5
:0209FF000000F6
:020A00000000F4
:020A01000000F3
:020A02000000F2
:020A03000000F1
:020A04000000F0
:020A05000000EF
:020A06000000EE
:020A07000000ED
:020A08000000EC
:020A09000000EB
:020A0A000000EA
:020A0B000000E9
:020A0C000000E8
:020A0D000000E7
:020A0E000000E6
:020A0F000000E5
:020A10000000E4
:020A11000000E3
:020A12000000E2
:020A13000000E1
:020A14000000E0
:020A15000000DF
:020A16000000DE
:020A17000000DD
:020A18000000DC
:020A19000000DB
:020A1A000000DA
:020A1B000000D9
:020A1C000000D8
:020A1D000000D7
:020A1E000000D6
:020A1F000000D5
:020A20000000D4
:020A21000000D3
:020A22000000D2
:020A23000000D1
:020A24000000D0
:020A25000000CF
:020A26000000CE
:020A27000000CD
:020A28000000CC
:020A29000000CB
:020A2A000000CA
:020A2B000000C9
:020A2C000000C8
:020A2D000000C7
:020A2E000000C6
:020A2F000000C5
:020A30000000C4
:020A31000000C3
:020A32000000C2
:020A33000000C1
:020A34000000C0
:020A35000000BF
:020A36000000BE
:020A37000000BD
:020A38000000BC
:020A39000000BB
:020A3A000000BA
:020A3B000000B9
:020A3C000000B8
:020A3D000000B7
:020A3E000000B6
:020A3F000000B5
:020A40000000B4
:020A41000000B3
:020A42000000B2
:020A43000000B1
:020A44000000B0
:020A45000000AF
:020A46000000AE
:020A47000000AD
:020A48000000AC
:020A49000000AB
:020A4A000000AA
:020A4B000000A9
:020A4C000000A8
:020A4D000000A7
:020A4E000000A6
:020A4F000000A5
:020A50000000A4
:020A51000000A3
:020A52000000A2
:020A53000000A1
:020A54000000A0
:020A550000009F
:020A560000009E
:020A570000009D
:020A580000009C
:020A590000009B
:020A5A0000009A
:020A5B00000099
:020A5C00000098
:020A5D00000097
:020A5E00000096
:020A5F00000095
:020A6000000094
:020A6100000093
:020A6200000092
:020A6300000091
:020A6400000090
:020A650000008F
:020A660000008E
:020A670000008D
:020A680000008C
:020A690000008B
:020A6A0000008A
:020A6B00000089
:020A6C00000088
:020A6D00000087
:020A6E00000086
:020A6F00000085
:020A7000000084
:020A7100000083
:020A7200000082
:020A7300000081
:020A7400000080
:020A750000007F
:020A760000007E
:020A770000007D
:020A780000007C
:020A790000007B
:020A7A0000007A
:020A7B00000079
:020A7C00000078
:020A7D00000077
:020A7E00000076
:020A7F00000075
:020A8000000074
:020A8100000073
:020A8200000072
:020A8300000071
:020A8400000070
:020A850000006F
:020A860000006E
:020A870000006D
:020A880000006C
:020A890000006B
:020A8A0000006A
:020A8B00000069
:020A8C00000068
:020A8D00000067
:020A8E00000066
:020A8F00000065
:020A9000000064
:020A9100000063
:020A9200000062
:020A9300000061
:020A9400000060
:020A950000005F
:020A960000005E
:020A970000005D
:020A980000005C
:020A990000005B
:020A9A0000005A
:020A9B00000059
:020A9C00000058
:020A9D00000057
:020A9E00010154
:020A9F00000055
:020AA000000054
:020AA100000053
:020AA200000052
:020AA300000051
:020AA400000050
:020AA50000004F
:020AA60000004E
:020AA70000004D
:020AA80000004C
:020AA90000004B
:020AAA0000004A
:020AAB00000049
:020AAC00000048
:020AAD00000047
:020AAE00000046
:020AAF00000045
:020AB000000044
:020AB100000043
:020AB200000042
:020AB300000041
:020AB400000040
:020AB50000003F
:020AB60000003E
:020AB70000003D
:020AB80000003C
:020AB90000003B
:020ABA0000003A
:020ABB00000039
:020ABC00000038
:020ABD00000037
:020ABE00000036
:020ABF00000035
:020AC000000034
:020AC100000033
:020AC200000032
:020AC300000031
:020AC400000030
:020AC50000002F
:020AC60000002E
:020AC70000002D
:020AC80000002C
:020AC90000002B
:020ACA0000002A
:020ACB00000029
:020ACC00000028
:020ACD00000027
:020ACE00000026
:020ACF00000025
:020AD000000024
:020AD100000023
:020AD200000022
:020AD300000021
:020AD400000020
:020AD50000001F
:020AD60000001E
:020AD70000001D
:020AD80000001C
:020AD90000001B
:020ADA0000001A
:020ADB00000019
:020ADC00000018
:020ADD00000017
:020ADE00000016
:020ADF00000015
:020AE000000014
:020AE100000013
:020AE200000012
:020AE300000011
:020AE400000010
:020AE50000000F
:020AE60000000E
:020AE70000000D
:020AE80000000C
:020AE90000000B
:020AEA0000000A
:020AEB00000009
:020AEC00000008
:020AED00000007
:020AEE00000006
:020AEF00000005
:020AF000000004
:020AF100000003
:020AF200000002
:020AF300000001
:020AF400000000
:020AF5000000FF
:020AF6000000FE
:020AF7000000FD
:020AF8000000FC
:020AF9000000FB
:020AFA000000FA
:020AFB000000F9
:020AFC000000F8
:020AFD000000F7
:020AFE000000F6
:020AFF000000F5
:020B00000000F3
:020B01000000F2
:020B02000000F1
:020B03000000F0
:020B04000000EF
:020B05000000EE
:020B06000000ED
:020B07000000EC
:020B08000000EB
:020B09000000EA
:020B0A000000E9
:020B0B000000E8
:020B0C000000E7
:020B0D000000E6
:020B0E000000E5
:020B0F000000E4
:020B10000000E3
:020B11000000E2
:020B12000000E1
:020B13000000E0
:020B14000000DF
:020B15000000DE
:020B16000000DD
:020B17000000DC
:020B18000000DB
:020B19000000DA
:020B1A000000D9
:020B1B000000D8
:020B1C000000D7
:020B1D000000D6
:020B1E000000D5
:020B1F000000D4
:020B20000000D3
:020B21000000D2
:020B22000000D1
:020B23000000D0
:020B24000000CF
:020B25000000CE
:020B26000000CD
:020B27000000CC
:020B28000000CB
:020B29000000CA
:020B2A000000C9
:020B2B000000C8
:020B2C000000C7
:020B2D000000C6
:020B2E000000C5
:020B2F000000C4
:020B30000000C3
:020B31000000C2
:020B32000000C1
:020B33000000C0
:020B34000000BF
:020B35000000BE
:020B36000000BD
:020B37000000BC
:020B38000000BB
:020B39000000BA
:020B3A000000B9
:020B3B000000B8
:020B3C000000B7
:020B3D000000B6
:020B3E000100B4
:020B3F000000B4
:020B40000000B3
:020B41000000B2
:020B42000000B1
:020B43000000B0
:020B44000000AF
:020B45000000AE
:020B46000000AD
:020B47000000AC
:020B48000000AB
:020B49000000AA
:020B4A000000A9
:020B4B000000A8
:020B4C000000A7
:020B4D000000A6
:020B4E000000A5
:020B4F000000A4
:020B50000000A3
:020B51000000A2
:020B52000000A1
:020B53000000A0
:020B540000009F
:020B550000009E
:020B560000009D
:020B570000009C
:020B580000009B
:020B590000009A
:020B5A00000099
:020B5B00000098
:020B5C00000097
:020B5D00000096
:020B5E00000095
:020B5F00000094
:020B6000000093
:020B6100000092
:020B6200000091
:020B6300000090
:020B640000008F
:020B650000008E
:020B660000008D
:020B670000008C
:020B680000008B
:020B690000008A
:020B6A00000089
:020B6B00000088
:020B6C00000087
:020B6D00000086
:020B6E00000085
:020B6F00000084
:020B7000000083
:020B7100000082
:020B7200000081
:020B7300000080
:020B740000007F
:020B750000007E
:020B760000007D
:020B770000007C
:020B780000007B
:020B790000007A
:020B7A00000079
:020B7B00000078
:020B7C00000077
:020B7D00000076
:020B7E00000075
:020B7F00000074
:020B8000000073
:020B8100000072
:020B8200000071
:020B8300000070
:020B840000006F
:020B850000006E
:020B860000006D
:020B870000006C
:020B880000006B
:020B890000006A
:020B8A00000069
:020B8B00000068
:020B8C00000067
:020B8D00000066
:020B8E00000065
:020B8F00000064
:020B9000000063
:020B9100000062
:020B9200000061
:020B9300000060
:020B940000005F
:020B950000005E
:020B960000005D
:020B970000005C
:020B980000005B
:020B990000005A
:020B9A00000059
:020B9B00000058
:020B9C00000057
:020B9D00000056
:020B9E00000055
:020B9F00000054
:020BA000000053
:020BA100000052
:020BA200000051
:020BA300000050
:020BA40000004F
:020BA50000004E
:020BA60000004D
:020BA70000004C
:020BA80000004B
:020BA90000004A
:020BAA00000049
:020BAB00000048
:020BAC00000047
:020BAD00000046
:020BAE00000045
:020BAF00000044
:020BB000000043
:020BB100000042
:020BB200000041
:020BB300000040
:020BB40000003F
:020BB50000003E
:020BB60000003D
:020BB70000003C
:020BB80000003B
:020BB90000003A
:020BBA00000039
:020BBB00000038
:020BBC00000037
:020BBD00000036
:020BBE00000035
:020BBF00000034
:020BC000000033
:020BC100000032
:020BC200000031
:020BC300000030
:020BC40000002F
:020BC50000002E
:020BC60000002D
:020BC70000002C
:020BC80000002B
:020BC90000002A
:020BCA00000029
:020BCB00000028
:020BCC00000027
:020BCD00000026
:020BCE00000025
:020BCF00000024
:020BD000000023
:020BD100000022
:020BD200000021
:020BD300000020
:020BD40000001F
:020BD50000001E
:020BD60000001D
:020BD70000001C
:020BD80000001B
:020BD90000001A
:020BDA00000019
:020BDB00000018
:020BDC00000017
:020BDD00000016
:020BDE00010014
:020BDF00000014
:020BE000000013
:020BE100000012
:020BE200000011
:020BE300000010
:020BE40000000F
:020BE50000000E
:020BE60000000D
:020BE70000000C
:020BE80000000B
:020BE90000000A
:020BEA00000009
:020BEB00000008
:020BEC00000007
:020BED00000006
:020BEE00000005
:020BEF00000004
:020BF000000003
:020BF100000002
:020BF200000001
:020BF300000000
:020BF4000000FF
:020BF5000000FE
:020BF6000000FD
:020BF7000000FC
:020BF8000000FB
:020BF9000000FA
:020BFA000000F9
:020BFB000000F8
:020BFC000000F7
:020BFD000000F6
:020BFE000000F5
:020BFF000000F4
:020C00000000F2
:020C01000000F1
:020C02000000F0
:020C03000000EF
:020C04000000EE
:020C05000000ED
:020C06000000EC
:020C07000000EB
:020C08000000EA
:020C09000000E9
:020C0A000000E8
:020C0B000000E7
:020C0C000000E6
:020C0D000000E5
:020C0E000000E4
:020C0F000000E3
:020C10000000E2
:020C11000000E1
:020C12000000E0
:020C13000000DF
:020C14000000DE
:020C15000000DD
:020C16000000DC
:020C17000000DB
:020C18000000DA
:020C19000000D9
:020C1A000000D8
:020C1B000000D7
:020C1C000000D6
:020C1D000000D5
:020C1E000000D4
:020C1F000000D3
:020C20000000D2
:020C21000000D1
:020C22000000D0
:020C23000000CF
:020C24000000CE
:020C25000000CD
:020C26000000CC
:020C27000000CB
:020C28000000CA
:020C29000000C9
:020C2A000000C8
:020C2B000000C7
:020C2C000000C6
:020C2D000000C5
:020C2E000000C4
:020C2F000000C3
:020C30000000C2
:020C31000000C1
:020C32000000C0
:020C33000000BF
:020C34000000BE
:020C35000000BD
:020C36000000BC
:020C37000000BB
:020C38000000BA
:020C39000000B9
:020C3A000000B8
:020C3B000000B7
:020C3C000000B6
:020C3D000000B5
:020C3E000000B4
:020C3F000000B3
:020C40000000B2
:020C41000000B1
:020C42000000B0
:020C43000000AF
:020C44000000AE
:020C45000000AD
:020C46000000AC
:020C47000000AB
:020C48000000AA
:020C49000000A9
:020C4A000000A8
:020C4B000000A7
:020C4C000000A6
:020C4D000000A5
:020C4E000000A4
:020C4F000000A3
:020C50000000A2
:020C51000000A1
:020C52000000A0
:020C530000009F
:020C540000009E
:020C550000009D
:020C560000009C
:020C570000009B
:020C580000009A
:020C5900000099
:020C5A00000098
:020C5B00000097
:020C5C00000096
:020C5D00000095
:020C5E00000094
:020C5F00000093
:020C6000000092
:020C6100000091
:020C6200000090
:020C630000008F
:020C640000008E
:020C650000008D
:020C660000008C
:020C670000008B
:020C680000008A
:020C6900000089
:020C6A00000088
:020C6B00000087
:020C6C00000086
:020C6D00000085
:020C6E00000084
:020C6F00000083
:020C7000000082
:020C7100000081
:020C7200000080
:020C730000007F
:020C740000007E
:020C750000007D
:020C760000007C
:020C770000007B
:020C780000007A
:020C7900000079
:020C7A00000078
:020C7B00000077
:020C7C00000076
:020C7D00000075
:020C7E00000074
:020C7F00000073
:020C8000000072
:020C8100000071
:020C8200000070
:020C830000006F
:020C840000006E
:020C850000006D
:020C860000006C
:020C870000006B
:020C880000006A
:020C8900000069
:020C8A00000068
:020C8B00000067
:020C8C00000066
:020C8D00000065
:020C8E00000064
:020C8F00000063
:020C9000000062
:020C9100000061
:020C9200000060
:020C930000005F
:020C940000005E
:020C950000005D
:020C960000005C
:020C970000005B
:020C980000005A
:020C9900000059
:020C9A00000058
:020C9B00000057
:020C9C00000056
:020C9D00000055
:020C9E00000054
:020C9F00000053
:020CA000000052
:020CA100000051
:020CA200000050
:020CA30000004F
:020CA40000004E
:020CA50000004D
:020CA60000004C
:020CA70000004B
:020CA80000004A
:020CA900000049
:020CAA00000048
:020CAB00000047
:020CAC00000046
:020CAD00000045
:020CAE00000044
:020CAF00000043
:020CB000000042
:020CB100000041
:020CB200000040
:020CB30000003F
:020CB40000003E
:020CB50000003D
:020CB60000003C
:020CB70000003B
:020CB80000003A
:020CB900000039
:020CBA00000038
:020CBB00000037
:020CBC00000036
:020CBD00000035
:020CBE00000034
:020CBF00000033
:020CC000000032
:020CC100000031
:020CC200000030
:020CC30000002F
:020CC40000002E
:020CC50000002D
:020CC60000002C
:020CC70000002B
:020CC80000002A
:020CC900000029
:020CCA00000028
:020CCB00000027
:020CCC00000026
:020CCD00000025
:020CCE00000024
:020CCF00000023
:020CD000000022
:020CD100000021
:020CD200000020
:020CD30000001F
:020CD40000001E
:020CD50000001D
:020CD60000001C
:020CD70000001B
:020CD80000001A
:020CD900000019
:020CDA00000018
:020CDB00000017
:020CDC00000016
:020CDD00000015
:020CDE00000014
:020CDF00000013
:020CE000000012
:020CE100000011
:020CE200000010
:020CE30000000F
:020CE40000000E
:020CE50000000D
:020CE60000000C
:020CE70000000B
:020CE80000000A
:020CE900000009
:020CEA00000008
:020CEB00000007
:020CEC00000006
:020CED00000005
:020CEE00000004
:020CEF00000003
:020CF000000002
:020CF100000001
:020CF200000000
:020CF3000000FF
:020CF4000000FE
:020CF5000000FD
:020CF6000000FC
:020CF7000000FB
:020CF8000000FA
:020CF9000000F9
:020CFA000000F8
:020CFB000000F7
:020CFC000000F6
:020CFD000000F5
:020CFE000000F4
:020CFF000000F3
:020D00000000F1
:020D01000000F0
:020D02000000EF
:020D03000000EE
:020D04000000ED
:020D05000000EC
:020D06000000EB
:020D07000000EA
:020D08000000E9
:020D09000000E8
:020D0A000000E7
:020D0B000000E6
:020D0C000000E5
:020D0D000000E4
:020D0E000000E3
:020D0F000000E2
:020D10000000E1
:020D11000000E0
:020D12000000DF
:020D13000000DE
:020D14000000DD
:020D15000000DC
:020D16000000DB
:020D17000000DA
:020D18000000D9
:020D19000000D8
:020D1A000000D7
:020D1B000000D6
:020D1C000000D5
:020D1D000000D4
:020D1E000000D3
:020D1F000000D2
:020D20000000D1
:020D21000000D0
:020D22000000CF
:020D23000000CE
:020D24000000CD
:020D25000000CC
:020D26000000CB
:020D27000000CA
:020D28000000C9
:020D29000000C8
:020D2A000000C7
:020D2B000000C6
:020D2C000000C5
:020D2D000000C4
:020D2E000000C3
:020D2F000000C2
:020D30000000C1
:020D31000000C0
:020D32000000BF
:020D33000000BE
:020D34000000BD
:020D35000000BC
:020D36000000BB
:020D37000000BA
:020D38000000B9
:020D39000000B8
:020D3A000000B7
:020D3B000000B6
:020D3C000000B5
:020D3D000000B4
:020D3E000000B3
:020D3F000000B2
:020D40000000B1
:020D41000000B0
:020D42000000AF
:020D43000000AE
:020D44000000AD
:020D45000000AC
:020D46000000AB
:020D47000000AA
:020D48000000A9
:020D49000000A8
:020D4A000000A7
:020D4B000000A6
:020D4C000000A5
:020D4D000000A4
:020D4E000000A3
:020D4F000000A2
:020D50000000A1
:020D51000000A0
:020D520000009F
:020D530000009E
:020D540000009D
:020D550000009C
:020D560000009B
:020D570000009A
:020D5800000099
:020D5900000098
:020D5A00000097
:020D5B00000096
:020D5C00000095
:020D5D00000094
:020D5E00000093
:020D5F00000092
:020D6000000091
:020D6100000090
:020D620000008F
:020D630000008E
:020D640000008D
:020D650000008C
:020D660000008B
:020D670000008A
:020D6800000089
:020D6900000088
:020D6A00000087
:020D6B00000086
:020D6C00000085
:020D6D00000084
:020D6E00000083
:020D6F00000082
:020D7000000081
:020D7100000080
:020D720000007F
:020D730000007E
:020D740000007D
:020D750000007C
:020D760000007B
:020D770000007A
:020D7800000079
:020D7900000078
:020D7A00000077
:020D7B00000076
:020D7C00000075
:020D7D00000074
:020D7E00000073
:020D7F00000072
:020D8000000071
:020D8100000070
:020D820000006F
:020D830000006E
:020D840000006D
:020D850000006C
:020D860000006B
:020D870000006A
:020D8800000069
:020D8900000068
:020D8A00000067
:020D8B00000066
:020D8C00000065
:020D8D00000064
:020D8E00000063
:020D8F00000062
:020D9000000061
:020D9100000060
:020D920000005F
:020D930000005E
:020D940000005D
:020D950000005C
:020D960000005B
:020D970000005A
:020D9800000059
:020D9900000058
:020D9A00000057
:020D9B00000056
:020D9C00000055
:020D9D00000054
:020D9E00000053
:020D9F00000052
:020DA000000051
:020DA100000050
:020DA20000004F
:020DA30000004E
:020DA40000004D
:020DA50000004C
:020DA60000004B
:020DA70000004A
:020DA800000049
:020DA900000048
:020DAA00000047
:020DAB00000046
:020DAC00000045
:020DAD00000044
:020DAE00000043
:020DAF00000042
:020DB000000041
:020DB100000040
:020DB20000003F
:020DB30000003E
:020DB40000003D
:020DB50000003C
:020DB60000003B
:020DB70000003A
:020DB800000039
:020DB900000038
:020DBA00000037
:020DBB00000036
:020DBC00000035
:020DBD00000034
:020DBE00000033
:020DBF00000032
:020DC000000031
:020DC100000030
:020DC20000002F
:020DC30000002E
:020DC40000002D
:020DC50000002C
:020DC60000002B
:020DC70000002A
:020DC800000029
:020DC900000028
:020DCA00000027
:020DCB00000026
:020DCC00000025
:020DCD00000024
:020DCE00000023
:020DCF00000022
:020DD000000021
:020DD100000020
:020DD20000001F
:020DD30000001E
:020DD40000001D
:020DD50000001C
:020DD60000001B
:020DD70000001A
:020DD800000019
:020DD900000018
:020DDA00000017
:020DDB00000016
:020DDC00000015
:020DDD00000014
:020DDE00000013
:020DDF00000012
:020DE000000011
:020DE100000010
:020DE20000000F
:020DE30000000E
:020DE40000000D
:020DE50000000C
:020DE60000000B
:020DE70000000A
:020DE800000009
:020DE900000008
:020DEA00000007
:020DEB00000006
:020DEC00000005
:020DED00000004
:020DEE00000003
:020DEF00000002
:020DF000000001
:020DF100000000
:020DF2000000FF
:020DF3000000FE
:020DF4000000FD
:020DF5000000FC
:020DF6000000FB
:020DF7000000FA
:020DF8000000F9
:020DF9000000F8
:020DFA000000F7
:020DFB000000F6
:020DFC000000F5
:020DFD000000F4
:020DFE000000F3
:020DFF000000F2
:020E00000000F0
:020E01000000EF
:020E02000000EE
:020E03000000ED
:020E04000000EC
:020E05000000EB
:020E06000000EA
:020E07000000E9
:020E08000000E8
:020E09000000E7
:020E0A000000E6
:020E0B000000E5
:020E0C000000E4
:020E0D000000E3
:020E0E000000E2
:020E0F000000E1
:020E10000000E0
:020E11000000DF
:020E12000000DE
:020E13000000DD
:020E14000000DC
:020E15000000DB
:020E16000000DA
:020E17000000D9
:020E18000000D8
:020E19000000D7
:020E1A000000D6
:020E1B000000D5
:020E1C000000D4
:020E1D000000D3
:020E1E000000D2
:020E1F000000D1
:020E20000000D0
:020E21000000CF
:020E22000000CE
:020E23000000CD
:020E24000000CC
:020E25000000CB
:020E26000000CA
:020E27000000C9
:020E28000000C8
:020E29000000C7
:020E2A000000C6
:020E2B000000C5
:020E2C000000C4
:020E2D000000C3
:020E2E000000C2
:020E2F000000C1
:020E30000000C0
:020E31000000BF
:020E32000000BE
:020E33000000BD
:020E34000000BC
:020E35000000BB
:020E36000000BA
:020E37000000B9
:020E38000000B8
:020E39000000B7
:020E3A000000B6
:020E3B000000B5
:020E3C000000B4
:020E3D000000B3
:020E3E000000B2
:020E3F000000B1
:020E40000000B0
:020E41000000AF
:020E42000000AE
:020E43000000AD
:020E44000000AC
:020E45000000AB
:020E46000000AA
:020E47000000A9
:020E48000000A8
:020E49000000A7
:020E4A000000A6
:020E4B000000A5
:020E4C000000A4
:020E4D000000A3
:020E4E000000A2
:020E4F000000A1
:020E50000000A0
:020E510000009F
:020E520000009E
:020E530000009D
:020E540000009C
:020E550000009B
:020E560000009A
:020E5700000099
:020E5800000098
:020E5900000097
:020E5A00000096
:020E5B00000095
:020E5C00000094
:020E5D00000093
:020E5E00000092
:020E5F00000091
:020E6000000090
:020E610000008F
:020E620000008E
:020E630000008D
:020E640000008C
:020E650000008B
:020E660000008A
:020E6700000089
:020E6800000088
:020E6900000087
:020E6A00000086
:020E6B00000085
:020E6C00000084
:020E6D00000083
:020E6E00000082
:020E6F00000081
:020E7000000080
:020E710000007F
:020E720000007E
:020E730000007D
:020E740000007C
:020E750000007B
:020E760000007A
:020E7700000079
:020E7800000078
:020E7900000077
:020E7A00000076
:020E7B00000075
:020E7C00000074
:020E7D00000073
:020E7E00000072
:020E7F00000071
:020E8000000070
:020E810000006F
:020E820000006E
:020E830000006D
:020E840000006C
:020E850000006B
:020E860000006A
:020E8700000069
:020E8800000068
:020E8900000067
:020E8A00000066
:020E8B00000065
:020E8C00000064
:020E8D00000063
:020E8E00000062
:020E8F00000061
:020E9000000060
:020E910000005F
:020E920000005E
:020E930000005D
:020E940000005C
:020E950000005B
:020E960000005A
:020E9700000059
:020E9800000058
:020E9900000057
:020E9A00000056
:020E9B00000055
:020E9C00000054
:020E9D00000053
:020E9E00000052
:020E9F00000051
:020EA000000050
:020EA10000004F
:020EA20000004E
:020EA30000004D
:020EA40000004C
:020EA50000004B
:020EA60000004A
:020EA700000049
:020EA800000048
:020EA900000047
:020EAA00000046
:020EAB00000045
:020EAC00000044
:020EAD00000043
:020EAE00000042
:020EAF00000041
:020EB000000040
:020EB10000003F
:020EB20000003E
:020EB30000003D
:020EB40000003C
:020EB50000003B
:020EB60000003A
:020EB700000039
:020EB800000038
:020EB900000037
:020EBA00000036
:020EBB00000035
:020EBC00000034
:020EBD00000033
:020EBE00000032
:020EBF00000031
:020EC000000030
:020EC10000002F
:020EC20000002E
:020EC30000002D
:020EC40000002C
:020EC50000002B
:020EC60000002A
:020EC700000029
:020EC800000028
:020EC900000027
:020ECA00000026
:020ECB00000025
:020ECC00000024
:020ECD00000023
:020ECE00000022
:020ECF00000021
:020ED000000020
:020ED10000001F
:020ED20000001E
:020ED30000001D
:020ED40000001C
:020ED50000001B
:020ED60000001A
:020ED700000019
:020ED800000018
:020ED900000017
:020EDA00000016
:020EDB00000015
:020EDC00000014
:020EDD00000013
:020EDE00000012
:020EDF00000011
:020EE000000010
:020EE10000000F
:020EE20000000E
:020EE30000000D
:020EE40000000C
:020EE50000000B
:020EE60000000A
:020EE700000009
:020EE800000008
:020EE900000007
:020EEA00000006
:020EEB00000005
:020EEC00000004
:020EED00000003
:020EEE00000002
:020EEF00000001
:020EF000000000
:020EF1000000FF
:020EF2000000FE
:020EF3000000FD
:020EF4000000FC
:020EF5000000FB
:020EF6000000FA
:020EF7000000F9
:020EF8000000F8
:020EF9000000F7
:020EFA000000F6
:020EFB000000F5
:020EFC000000F4
:020EFD000000F3
:020EFE000000F2
:020EFF000000F1
:020F00000000EF
:020F01000000EE
:020F02000000ED
:020F03000000EC
:020F04000000EB
:020F05000000EA
:020F06000000E9
:020F07000000E8
:020F08000000E7
:020F09000000E6
:020F0A000000E5
:020F0B000000E4
:020F0C000000E3
:020F0D000000E2
:020F0E000000E1
:020F0F000000E0
:020F10000000DF
:020F11000000DE
:020F12000000DD
:020F13000000DC
:020F14000000DB
:020F15000000DA
:020F16000000D9
:020F17000000D8
:020F18000000D7
:020F19000000D6
:020F1A000000D5
:020F1B000000D4
:020F1C000000D3
:020F1D000000D2
:020F1E000000D1
:020F1F000000D0
:020F20000000CF
:020F21000000CE
:020F22000000CD
:020F23000000CC
:020F24000000CB
:020F25000000CA
:020F26000000C9
:020F27000000C8
:020F28000000C7
:020F29000000C6
:020F2A000000C5
:020F2B000000C4
:020F2C000000C3
:020F2D000000C2
:020F2E000000C1
:020F2F000000C0
:020F30000000BF
:020F31000000BE
:020F32000000BD
:020F33000000BC
:020F34000000BB
:020F35000000BA
:020F36000000B9
:020F37000000B8
:020F38000000B7
:020F39000000B6
:020F3A000000B5
:020F3B000000B4
:020F3C000000B3
:020F3D000000B2
:020F3E000000B1
:020F3F000000B0
:020F40000000AF
:020F41000000AE
:020F42000000AD
:020F43000000AC
:020F44000000AB
:020F45000000AA
:020F46000000A9
:020F47000000A8
:020F48000000A7
:020F49000000A6
:020F4A000000A5
:020F4B000000A4
:020F4C000000A3
:020F4D000000A2
:020F4E000000A1
:020F4F000000A0
:020F500000009F
:020F510000009E
:020F520000009D
:020F530000009C
:020F540000009B
:020F550000009A
:020F5600000099
:020F5700000098
:020F5800000097
:020F5900000096
:020F5A00000095
:020F5B00000094
:020F5C00000093
:020F5D00000092
:020F5E00000091
:020F5F00000090
:020F600000008F
:020F610000008E
:020F620000008D
:020F630000008C
:020F640000008B
:020F650000008A
:020F6600010088
:020F6700010186
:020F6800000087
:020F6900000086
:020F6A00000085
:020F6B00000084
:020F6C00000083
:020F6D00000082
:020F6E00000081
:020F6F00000080
:020F700000007F
:020F710000007E
:020F720000007D
:020F730000007C
:020F740000007B
:020F750000007A
:020F7600000079
:020F7700000078
:020F7800000077
:020F7900000076
:020F7A00000075
:020F7B00000074
:020F7C00000073
:020F7D00000072
:020F7E00000071
:020F7F00000070
:020F800000006F
:020F810000006E
:020F820000006D
:020F830000006C
:020F840000006B
:020F850000006A
:020F8600000069
:020F8700000068
:020F8800000067
:020F8900000066
:020F8A00000065
:020F8B00000064
:020F8C00000063
:020F8D00000062
:020F8E00000061
:020F8F00000060
:020F900000005F
:020F910000005E
:020F920000005D
:020F930000005C
:020F940000005B
:020F950000005A
:020F9600000059
:020F9700000058
:020F9800000057
:020F9900000056
:020F9A00000055
:020F9B00000054
:020F9C00000053
:020F9D00000052
:020F9E00000051
:020F9F00000050
